:020000040800F2
:100000008811002045010008697400084B4C000865
:100010006574000815110008DD8900080000000063
:10002000000000000000000000000000257E000825
:100030008113000800000000297A0008097F0008E9
:100040005F0100085F0100085F0100085F01000810
:100050005F010008457B00085F0100085F010008A0
:100060005F0100085F0100085F0100085F010008F0
:1000700035130008451300085F0100085F01000800
:100080005F0100085F0100085F0100085F010008D0
:100090005F0100085F0100085F0100085F010008C0
:1000A0005F0100085F0100085F0100085F010008B0
:1000B000797F00085F010008897F0008554F00081C
:1000C000454F00085F0100085F010008497B0008F8
:1000D000757B0008A5890008B5890008C989000852
:1000E0005F0100085F0100085F0100085F01000870
:1000F0005F0100085F0100085F0100085F01000860
:100100005F0100085F010008997F00085F01000897
:100110005F0100085F0100085F0100085F0100083F
:100120005F0100085F0100085F0100085F0100082F
:10013000DFF80CD000F044FB004800477D95000834
:10014000881100200648804706480047FEE7FEE782
:10015000FEE7FEE7FEE7FEE7FEE7FEE7FEE7FEE777
:10016000777F000831010008202A04DB203A21FAB9
:1001700002F00021704721FA02F3D040C2F12002C0
:100180009140084319467047D2B201E000F8012BB4
:10019000491EFBD270470022F6E710B513460A4607
:1001A00004461946FFF7F0FF204610BD30B505465E
:1001B0002A460B4612F8010B13F8014B08B1A04276
:1001C000F8D01CB1002802D06D1CF1E7284630BDE4
:1001D00010B5002200E0521C835C8C5CA34201D16C
:1001E000002BF8D1D8B2E1B2401A10BD30B50446A8
:1001F0000020034600E05B1C934203D2E05CCD5C30
:10020000401BF8D030BD2DE9FE4F804681EA030047
:10021000C00F0C46009021F0004123F00045B8EBE0
:100220000200A94105D24046214690461C460B4695
:10023000024623F00040104347D0270DC7F30A00C1
:10024000C3F30A510290401A019040286BDAC3F3BD
:10025000130040F4801B0098924620B10023D2EB9B
:10026000030A63EB0B0B01985946C0F1400250465C
:1002700000F0C1F906460D4650465946019A00F075
:10028000C9F910EB08006141002487EA115284EAA1
:10029000E7731A4340D0009A62B3019A012A4FEAE9
:1002A000075215DC001B61EB02014FF0004202EA2D
:1002B0000752CDE90042001C41F5801132462B4621
:1002C00000F000FA03B0BDE8F08F40462146F9E7A0
:1002D000001B61EB0201001C41F5801300185B411B
:1002E0002018A2F5001747EB030140EAD570B619B4
:1002F0006D4111E06D084FEA360645EAC0754FEAD8
:100300000752001B61EB0201001C41F580114908F6
:100310004FEA30000019514132462B4603B0BDE888
:10032000F04F00F0C0B90098012240000023D0EB4C
:10033000020263EBE073009821464FEAE074B8EBE9
:10034000000061EB0401E9E783F000435BE781F023
:10035000004158E72DE9FE4F81EA030404F0004410
:1003600021F0004100944FF0000B23F0004350EACD
:1003700001045ED052EA03045BD0C3F30A54C1F314
:100380000A552C44A4F2F3340194A0FB0254C1F3A7
:10039000130141F48011C3F3130343F4801301FBF1
:1003A000024400FB034E840A970A44EA815447EA58
:1003B0008357A4FB076802958D0A05FB07854FEA62
:1003C000932C04FB0C542705029D4FEA065847EA7C
:1003D0001637B5EB08056EEB070C870E920E47EA51
:1003E000811742EA8312A7FB0201B6EB0B0164EB13
:1003F00000042B0D43EA0C335E1844EB1C50DA4624
:100400005146E7FB0201C5F313044FEA0B3343EAFD
:1004100014534FEA0432019C43EA0603A4F10C048E
:100420000294009CCDE900B400F04CF903B0BDE8A3
:10043000F08F00200146F9E72DE9F04D81EA030431
:1004400004F0004B21F0004514464FF0000A23F061
:10045000004150EA050220D054EA01021DD0C5F344
:100460000A570246C5F31303C1F31300C1F30A563A
:1004700040F4801543F48013A7EB0608101BD64602
:1004800008F2FD3873EB050002D308F1010801E022
:1004900092185B41B8F1000F03DA00200146BDE875
:1004A000F08D00204FF48011064684460EE0171BA5
:1004B00073EB050705D3121B63EB050306434CEAF8
:1004C000010C49084FEA300092185B4150EA0107DD
:1004D000EDD152EA030012D082EA040083EA05015A
:1004E000084305D0101BAB4106D20122002306E0D1
:1004F00000224FF0004302E06FF0010253101AEBAC
:1005000006004CEB085110EB0A0041EB0B01BDE873
:10051000F04D00F0C8B80EB540F233410291002111
:10052000CDE900110A460B4600F0CCF803B000BD3F
:1005300001F0004330B421F0004150EA010206D03E
:100540000A0DA2F56072C1F31301002A02DC30BC6F
:1005500000207047440F44EAC104C100E01830BCD9
:1005600000EBC25000F068B830B50B4601460020E1
:100570002022012409E021FA02F59D4205D303FA65
:1005800002F5491B04FA02F52844151EA2F10102E6
:10059000F1DC30BD2DE9F05F0546002092469B4618
:1005A00088460646814640241BE028464146474689
:1005B0002246FFF7D9FD53465A46C01A914110D33F
:1005C00011461846224600F016F82D1A67EB01086E
:1005D0004F4622460120002100F00DF817EB0009DC
:1005E0004E41201EA4F10104DFDC484631462A4674
:1005F0004346BDE8F09F202A04DB203A00FA02F1CE
:10060000002070479140C2F1200320FA03F3194300
:1006100090407047202A06DBCB17203A41FA02F0BF
:1006200043EAE07306E041FA02F3D040C2F120024F
:1006300091400843194670470029A8BF7047401CE5
:10064000490008BF20F00100704710B4B0FA80FCE8
:1006500000FA0CF050EA010404BF10BC704749B125
:10066000CCF1200421FA04F411FA0CF118BF012195
:1006700021430843A3EB0C01CB1D4FEA00614FEA75
:10068000102042BF002010BC704700EBC350104444
:100690000029A4BF10BC7047401C490008BF20F0CF
:1006A000010010BC704710B5141E73F1000408DA85
:1006B000401C41F1000192185B411A4301D120F026
:1006C000010010BD2DE9F04D92469B4611B1B1FAE3
:1006D00081F202E0B0FA80F220329046FFF78BFF01
:1006E00004460F4640EA0A0041EA0B0153465A46C7
:1006F000084313D0114653EA010019D0C8F1400253
:100700005046FFF731FD05460E46504659464246D3
:10071000FFF771FF084305D0012004E02046394669
:10072000BDE8F08D0020054346EAE0762C433743D0
:100730000A986305E40AA0EB08000022FD0A44EAD7
:1007400047540A3002D500200146E9E70105101997
:100750006941DDE9084500196941BDE8F04DA2E7AE
:10076000C1F30A52C1F3130140F2FF3341F4801187
:100770009A4202DA00200146704740F233439A421F
:10078000A2F2334202DC5242FFF7EEBCFFF733BF66
:1007900030B5041E71F1000404DB4FF00044404208
:1007A00064EB0101141E73F1000405DB1C464FF0DD
:1007B0000043524263EB0403994208BF904230BDAC
:1007C000064C074D06E0E06840F0010394E807009E
:1007D00098471034AC42F6D3FFF7AEFC7CDD00083E
:1007E0009CDD000810B501200C49487207F046FB5B
:1007F00007F01AFB002404E00949085D06F022FE18
:10080000641C0A2CF8DB642000F0BBFD0348407A2E
:1008100008B9002010BD0120FCE70000100C0020EA
:100820002D00002010B5002008490870C822084992
:10083000084804F08BF907480068C06840F01000D1
:1008400004490968C860FFF7CDFF10BD2C000020E7
:10085000100C002094020020FEB500250026002781
:1008600005E3052E78D2DFE806F00378F0EEED0020
:10087000681CC5B24FF6FF70F0231A464FF6F671AA
:100880000090084605F044FF002010214FF6FF724B
:100890000346CDE900210290FCA2402106F077F941
:1008A000FDA008F0AFF906F060FF0446002C3AD135
:1008B000012006F037FF0446DCB94FF6FF70F02345
:1008C0001A464FF6F6710090084605F021FF002009
:1008D00010214FF6FF720346CDE900210290F5A2E8
:1008E000402106F054F9F6A008F08CF90025012605
:1008F00032E04FF6FF70F0231A464FF6F671009083
:10090000084605F005FF002010214FF6FF72034650
:10091000CDE900210290F0A2402106F038F92046EE
:1009200007F0E2FA18E04FF6FF70F0231A464FF690
:10093000F6710090084605F0EBFE002010214FF6FE
:10094000FF720346CDE900210290E3A2402106F0A8
:100950001EF9204607F0C8FA7AE1681CC5B24FF6C6
:10096000FF70F0231A464FF6F6710090084605F026
:10097000CFFE002010214FF6FF720346CDE9002183
:100980000290D7A2402106F002F9D9A008F03AF966
:1009900006F0EBFE0446002C3AD1022006F0C2FE1F
:1009A0000446DCB94FF6FF70F0231A464FF6F67195
:1009B0000090084605F0ACFE002010214FF6FF72B3
:1009C0000346CDE900210290BAA2402106F0DFF8EB
:1009D000BBA008F017F90025022632E04FF6FF70A1
:1009E000F0231A464FF6F6710090084605F090FE87
:1009F000002010214FF6FF720346CDE9002102903E
:100A0000BFA2402106F0C3F8204607F06DFA18E0B7
:100A10004FF6FF70F0231A464FF6F6710090084625
:100A200005F076FE002010214FF6FF720346CDE957
:100A300000210290B2A2402106F0A9F8204607F05A
:100A400053FA05E1B7E05BE0FFE74FF6FF70F023F4
:100A50001A464FF6F6710090084605F059FE002040
:100A600010214FF6FF720346CDE900210290A6A2A5
:100A7000402106F08CF8A8A008F0C4F806F018FF92
:100A80000446D4B94FF6FF70F0231A464FF6F671BC
:100A90000090084605F03CFE002010214FF6FF7242
:100AA0000346CDE900210290A2A2402106F06FF892
:100AB000A4A008F0A7F803261DE04FF6FF70F0236E
:100AC0001A464FF6F6710090084605F021FE002008
:100AD00010214FF6FF720346CDE9002102909FA23C
:100AE000402106F054F8A1A008F08CF8204607F049
:100AF000FBF90025002640F6B83000F042FCA7E0E4
:100B00004FF6FF70F0231A464FF6F6710090084634
:100B100005F0FEFD002010214FF6FF720346CDE9DF
:100B20000021029096A2402106F031F898A008F02A
:100B300069F840F6B83000F024FC06F0D6FE044612
:100B4000D4B94FF6FF70F0231A464FF6F6710090B5
:100B5000084605F0DDFD002010214FF6FF72034628
:100B6000CDE90021029090A2402106F010F892A059
:100B700008F048F8042619E04FF6FF70F0231A46F3
:100B80004FF6F6710090084605F0C2FD00201021D6
:100B90004FF6FF720346CDE90021029090A240215A
:100BA00005F0F5FF0026204607F09EF940F6B83024
:100BB00000F0E7FB4CE08EA008F024F80627394649
:100BC000022006F0AFFE04463CBB4FF6FF70F02358
:100BD0001A464FF6F6710090084605F099FD002080
:100BE00010214FF6FF720346CDE90021029085A245
:100BF000402105F0CCFF87A008F004F840F6B8309B
:100C000000F0BFFB4FF6FF70F0231A464FF6F67167
:100C10000090084605F07CFDFEBD4FF6FF70F02306
:100C20001A464FF6F6710090084605F071FD002057
:100C300010214FF6FF720346CDE9002102907DA2FC
:100C4000402105F0A4FF0026204607F04DF900BF23
:100C500000BF4FF47A7000F094FB052D15D14FF6CC
:100C6000FF70F0231A464FF6F6710090084605F023
:100C70004FFD002010214FF6FF720346CDE9002101
:100C800002906FA240211820E0E0F0E04C6F67670F
:100C9000696E672046500000506C65617365205096
:100CA0007265737320796F75722066696E676572FD
:100CB0000D0A00004E6F726D616C204650000000FE
:100CC0004E6F726D616C2046696E676572707269F5
:100CD0006E740D0A000000004572726F725F310081
:100CE0004C6F6767696E6720616761696E0000001D
:100CF000507265737320616761696E0D0A000000B0
:100D00004572726F725F3200436F6E7472617374FA
:100D1000696E672E2E2E2E00436F6E74726173748F
:100D200020776974682074776F2073616D706C65CB
:100D3000730D0A00436F6D70617265207269676898
:100D400074000000436F6D7061726520737563639A
:100D500065737366756C6C790D0A0000436F6D7076
:100D6000617265206661696C65640000436F6D7037
:100D7000617265206661696C65646C790D0A0000BA
:100D800047656E65726174696E672E2E2E000000D5
:100D900047656E6572617465207468652074656D61
:100DA000706C6174650D0A0047656E6572617465EB
:100DB000207269676874000047656E6572617465CA
:100DC000207468652074656D706C6174652073753E
:100DD000636365737366756C6C790D0A00000000BF
:100DE00047656E6572617465206661696C65640053
:100DF00044656661756C742049442069732036200F
:100E00000D0A000041646420737563636573736643
:100E1000756C00004164642046696E67657270728B
:100E2000696E74207375636365737366756C6C7932
:100E30000D0A0000416464206661696C656400000D
:100E400054696D656F7574210000000005F09FFE08
:100E50004FF47A7000F095FA4FF6FF70F0231A46BF
:100E60004FF6F6710090084605F052FC00E0F8E4F9
:100E700000BF00BFD0E6000010B564220649074855
:100E800003F04EFE05480068C06840F010000349BA
:100E90000968C86010BD0000E40C0020DC020020DE
:100EA00010B504461CA12046FFF792F908B90120AD
:100EB00010BD1CA12046FFF78BF908B90220F7E707
:100EC0001BA12046FFF784F908B90320F0E71BA116
:100ED0002046FFF77DF908B90420E9E71AA120466A
:100EE000FFF776F908B90520E2E71AA12046FFF7D7
:100EF0006FF908B90620DBE719A12046FFF768F96A
:100F000008B90720D4E719A12046FFF761F908B90D
:100F10000820CDE70920CBE7646F6F726F70656EB4
:100F200000000000646F6F72636C6F7365000000F7
:100F30006C65647265646F6E000000006C656472BD
:100F400065646F66660000006C6564776869746547
:100F50006F6E00006C656477686974656F66660023
:100F60006C6564677265656E6F6E00006C656467C2
:100F70007265656E6F66660010B564210148FFF703
:100F80000AF910BDE40C002008B56048006801288B
:100F900011D100205D4908605D49087000F072FAC7
:100FA0004FF6FF70F0231A464FF6F6710090084690
:100FB00005F0AEFBA8E055480068022811D10020DA
:100FC000524908605249087000F0FEF94FF6FF7070
:100FD000F0231A464FF6F6710090084605F098FB8C
:100FE00092E04A480068032811D100204749086070
:100FF0004749087005F02AFE4FF6FF70F0231A46A5
:101000004FF6F6710090084605F082FB7CE03F4801
:101010000068042811D100203C4908603C49087050
:1010200005F00AFE4FF6FF70F0231A464FF6F671F0
:101030000090084605F06CFB66E03448006805281F
:1010400011D10020314908603149087005F012FEC5
:101050004FF6FF70F0231A464FF6F67100900846DF
:1010600005F056FB50E029480068062811D1002001
:10107000264908602649087005F0F2FD4FF6FF701A
:10108000F0231A464FF6F6710090084605F040FB33
:101090003AE01E48006807280FD100201C4908705C
:1010A00005F0FCFD4FF6FF70F0231A464FF6F6717F
:1010B0000090084605F02CFB26E01448006808283C
:1010C00011D10020114908601149087005F0DCFDBC
:1010D0004FF6FF70F0231A464FF6F671009008465F
:1010E00005F016FB10E00020084908600849087068
:1010F00000F08EF94FF6FF70F0231A464FF6F671A6
:101100000090084605F004FB08BD000068000020C0
:101110006400002000BFFEE70EB5584806F0B9F99C
:1011200000286ED15548233806F0C2FA00286AD14B
:10113000524B233B1A1D0B21602006F0E2F90028D8
:1011400042D14FA007F05EFD4C491039082006F04F
:1011500016FAE0B94FF6FF70F0231A464FF6F67113
:101160000090084605F0D4FA002010214FF6FF72D7
:101170000346CDE90021029044A240211E2005F043
:1011800006FD4FF4FA7000F0FCF800200EBD4FF69B
:10119000FF70F0231A464FF6F6710090084605F0EE
:1011A000B7FA002010214FF6FF720346CDE9002167
:1011B000029038A240211E2005F0E9FC4FF4FA709D
:1011C00000F0DFF8FE20E1E74FF6FF70F0231A464B
:1011D0004FF6F6710090084605F09AFA00201021AB
:1011E0004FF6FF720346CDE90021029029A240216B
:1011F0001E2005F0CCFC4FF4FA7000F0C2F8FE207F
:10120000C4E71DE0FFE74FF6FF70F0231A464FF6E4
:10121000F6710090084605F07BFA002010214FF689
:10122000FF720346CDE9002102901DA240211E203D
:1012300005F0ADFC4FF4FA7000F0A3F8FE20A5E72E
:101240004FF6FF70F0231A464FF6F67100900846ED
:1012500005F05EFA002010214FF6FF720346CDE93B
:101260000021029011A240211E2005F090FC4FF4B5
:10127000FA7000F086F8FE2088E700005E0000208B
:101280004B4559204D415443480D0A0049442050D4
:10129000415353004944204552524F520000000030
:1012A000556E6B6E6F776E204944000049442041B3
:1012B0004E5449000EB54FF6FF70F0231A464FF614
:1012C000F6710090084605F023FA002010214FF631
:1012D000FF720346CDE90021029012A2402118209E
:1012E00005F055FCC82000F04CF8FFF715FF60B979
:1012F0004FF6FF70F0231A464FF6F671009008463D
:1013000005F006FA00F0BEF80BE04FF6FF70F02390
:101310001A464FF6F6710090084605F0F9F900F00C
:1013200077F80EBD5665726966792049442E2E2ED7
:101330000000000010B5024800F064FC10BD000081
:101340006803002010B5024800F05CFC10BD0000EE
:101350002403002030B590F840500124AC40C56B08
:101360006C60046863604468102C04D10468A26057
:101370000468E16003E00468A1600468E26030BDD5
:10138000704700B5034603E04FF47A7000F005F8AB
:10139000181EA3F10103F7D100BD00EBC001C90085
:1013A0004FF0E0225161002191610521116100BFE0
:1013B0004FF0E021096901F480310029F8D00421BF
:1013C0004FF0E022116170470EB505F035FC05F0D5
:1013D00051FC05F059FC4FF4FA70FFF7D2FF0020E2
:1013E00010214FF6FF720346CDE90021029005A2BD
:1013F0004021142005F0CBFB06F05EFD1420FFF722
:10140000C0FF0EBD446F6F7220436C6F73650000A8
:101410000EB505F01BFC05F023FC05F035FC4FF480
:10142000FA70FFF7AEFF4FF6FF70F0231A464FF643
:10143000F6710090084605F06BF9002010214FF678
:10144000FF724FF47843CDE90021029009A24021B8
:101450000E2005F09CFB4FF47A70FFF792FF4FF6D9
:10146000FF70F0231A464FF6F6710090084605F01B
:101470004FF90EBD436F6E6669726D204572726FD3
:10148000720000000EB505F0D7FB05F0E9FB05F092
:1014900005FC4FF4FA70FFF774FF4FF6FF70F0236E
:1014A0001A464FF6F6710090084605F031F9002013
:1014B00010214FF6FF724FF4FC63CDE9002102903A
:1014C0000AA24021142005F062FB06F005FD41F25E
:1014D0008830FFF756FF4FF6FF70F0231A464FF69D
:1014E000F6710090084605F013F90EBD446F6F7257
:1014F000204F70656E000000014621293ED2DFE8D2
:1015000001F011131517191B1D1F212325273D3D20
:101510003D3D292B3D3D3D2D3D3D2F313335373D63
:101520003D393B0017A02BE018A029E01FA027E0C1
:1015300026A025E02EA023E037A021E040A01FE058
:1015400048A01DE051A01BE058A019E05EA017E0E4
:1015500064A000BF6CA013E072A011E07AA00FE0BD
:1015600080A00DE087A00BE08AA009E090A007E032
:1015700096A005E09EA003E0A5A001E0AAA000BF00
:1015800000BF70474F4B200D0A000000446174619A
:10159000205061636B61676520726563656976657C
:1015A000206572726F720D0A000000004E6F206697
:1015B000696E676572206465746563746564206F25
:1015C0006E2073656E736F720D0A00004C6F676753
:1015D000696E672066696E6765727072696E7420E5
:1015E000696D616765206661696C65640D0A00005C
:1015F00046696E6765727072696E742069732074D3
:101600006F6F20647279206F7220746F6F2077651E
:10161000616B0D0A0000000046696E6765727072AA
:10162000696E7420697320746F6F20776574206F02
:101630007220746F6F207374726F6E670D0A0000F2
:1016400046696E6765727072696E7420696D616754
:101650006520697320746F6F206D657373790D0A4F
:101660000000000046696E6765727072696E7420D2
:101670006665617475726520706F696E7420697338
:1016800020746F6F206665770D0A000046696E67EB
:1016900065727072696E74206973206E6F74206D4C
:1016A0006174636865640D0A000000004E6F206677
:1016B000696E6765727072696E7420697320666FF7
:1016C000756E640D0A0000004D65726765206665E1
:1016D0006174757265206973206661696C65640D5B
:1016E0000A00000041646472657373206E756D6258
:1016F0006572206973206F7574206F662072616E49
:1017000067650D0A0000000044656C65746520740F
:10171000656D706C617465206973206661696C65C4
:10172000640D0A00436C6561722066696E676572BC
:101730007072696E742062616E6B206973206661DD
:10174000696C65640D0A00004E6F207661696C64F7
:1017500020696D61676520696E20627566666572D5
:101760000D0A000052656164206F722077726974FF
:101770006520464C415348206973206661696C6559
:10178000640D0A00556E6B6E6F776E206572726F16
:10179000720D0A00496E7661696C64207265676932
:1017A00073746572206E756D6265720D0A000000BB
:1017B000526567697374657220636F6E74656E74C9
:1017C000206572726F720D0A000000004E6F746522
:1017D000626F6F6B2070616765206E756D626572F8
:1017E00020697320696E636F72726563740D0A00FD
:1017F00046696E6765727072696E742062616E6BA5
:101800002069732066756C6C65640D0A0000000029
:101810004164647265737320697320696E636F72CB
:10182000726563740D0A000052657475726E2063F0
:101830006F6465206572726F720D0A0072B600BF28
:10184000FEE700000022054BDA61054A126942F00A
:101850000102034B1A61018070470000B0030020B1
:101860000020024000201E49C96801F0100139B172
:101870001C49C96941F002011A4AD16140F01000C7
:101880001749C96801F0040139B11649C96941F025
:101890000101144AD16140F004001149C96901F005
:1018A000010169B10F49C96941F004010D4AD161D3
:1018B00000BF0B49C96921F00101094AD16100BF8C
:1018C00000BF40F20111884206D10549C96921F0E3
:1018D0000101034AD16101E00149C86000BF7047BE
:1018E00000200240B003002070B5044600F012FE54
:1018F000054609E0601C38B124B100F00BFE401B26
:10190000A04201D9032070BD1248C06800F0010058
:101910000028EFD10F48C06800F0200020B100BFC0
:1019200020200C49C86000BF0A48C06800F01000C1
:1019300048B90848C06900F0010020B90548C068EE
:1019400000F0040018B1FFF78DFF0120DBE7002055
:10195000D9E70000002002400EB54FF6FF70F023DB
:101960001A464FF6F6710090084604F0D1FE0020AA
:1019700010214FF6FF720346CDE90021029011A21B
:10198000402105F004F906F051F864280CDBFFF75C
:1019900079FD4FF6FF70F0231A464FF6F67100906E
:1019A000084604F0B5FE0BE0FFF732FD4FF6FF707E
:1019B000F0231A464FF6F6710090084604F0A8FE90
:1019C0000EBD0000506C65617365205072657373C5
:1019D0003A0000000021074AD1610749096941F036
:1019E0000201054A116111464861096941F040014F
:1019F00011617047D0030020002002400146002200
:101A000091F82100022808D00420886300BF00203C
:101A100081F8200000BF012070470868006820F0AE
:101A20000E000B6818600868006820F001000B6861
:101A3000186091F8403001209840CB6B586001202D
:101A400081F8210000BF002081F8200000BF10466F
:101A5000E2E7000070B50446002594F82100022852
:101A600003D00420A0630125C1E02068006820F0B5
:101A70000E00216808602068006820F001002168DD
:101A800008605C492068884252D95A4978392068F0
:101A9000884201D1012047E05649643920688842D4
:101AA00001D1102040E0534950392068884201D1CB
:101AB000801539E04F493C392068884201D18014B3
:101AC00032E04C4928392068884202D14FF48030F6
:101AD0002AE0484914392068884202D14FF4801026
:101AE00022E044492068884201D140041CE0424978
:101AF0002068884201D1012016E03F491431206856
:101B0000884201D110200FE03B49283120688842EB
:101B100001D1801508E038493C312068884201D164
:101B2000801401E04FF480303349091F086051E010
:101B3000304978392068884201D1012047E02D4999
:101B400064392068884201D1102040E02949503989
:101B50002068884201D1801539E026493C39206847
:101B6000884201D1801432E0224928392068884215
:101B700002D14FF480302AE01E491439206888428F
:101B800002D14FF4801022E01A492068884201D126
:101B900040041CE018492068884201D1012016E069
:101BA000154914312068884201D110200FE01249F4
:101BB00028312068884201D1801508E00E493C3167
:101BC0002068884201D1801401E04FF48030094937
:101BD00080394860012084F8210000BF002084F88B
:101BE000200000BF606B10B12046616B884728461B
:101BF00070BD00008000024008040240014691F8D8
:101C00002100704770B50446E06B056820680668DF
:101C100094F84010042088402840002875D006F031
:101C200004000028FAD02068006800F0200028B9DD
:101C30002068006820F0040021680860D549206809
:101C4000884254D9D34978392068884201D1042088
:101C500049E0D04964392068884201D1402042E0FF
:101C6000CC4950392068884201D100153BE0C94970
:101C70003C392068884202D14FF4804033E0C549A6
:101C800028392068884202D14FF480202BE0C149D6
:101C900014392068884202D14FF4800023E0BD4906
:101CA0002068884201D1C0041DE0BB4920688842F9
:101CB00001D1042017E0B84914312068884201D1CD
:101CC000402010E0B44928312068884201D1001535
:101CD00009E0B1493C312068884202D14FF480408C
:101CE00001E04FF48020AC49091F086054E0A94985
:101CF00078392068884201D104204AE0A549643936
:101D00002068884202D1402043E04CE0A14950398C
:101D10002068884201D100153BE09E493C3920688B
:101D2000884202D14FF4804033E09A492839206834
:101D3000884202D14FF480202BE096491439206864
:101D4000884202D14FF4800023E092492068884203
:101D500001D1C0041DE090492068884201D10420CF
:101D600017E08D4914312068884201D1402010E0ED
:101D7000894928312068884201D1001509E0864947
:101D80003C312068884202D14FF4804001E04FF49A
:101D90008020804980394860E06A002802D02046CF
:101DA000E16A8847F4E094F8401002208840284017
:101DB000002871D006F002000028FAD020680068E0
:101DC00000F0200040B92068006820F00A00216877
:101DD0000860012084F821006E492068884254D9A7
:101DE0006C4978392068884201D1022049E069496C
:101DF00064392068884201D1202042E06549503989
:101E00002068884201D140153BE062493C39206896
:101E1000884202D14FF4005033E05E4928392068EF
:101E2000884202D14FF400302BE05A49143920681F
:101E3000884202D14FF4001023E0564920688842BE
:101E400001D180041DE054492068884201D102205C
:101E500017E0514914312068884201D1202010E058
:101E60004D4928312068884201D1401509E04A498E
:101E70003C312068884202D14FF4005001E04FF419
:101E800000304549091F086054E04249783920680C
:101E9000884202D102204AE057E03E496439206876
:101EA000884201D1202042E03A49503920688842D6
:101EB00001D140153BE037493C392068884202D1C6
:101EC0004FF4005033E0334928392068884202D16A
:101ED0004FF400302BE02F4914392068884202D19A
:101EE0004FF4001023E02B492068884201D1800480
:101EF0001DE029492068884201D1022017E02649C7
:101F000014312068884201D1202010E02249283174
:101F10002068884201D1401509E01F493C31206802
:101F2000884202D14FF4005001E04FF400301949CB
:101F30008039486000BF002084F8200000BFA06AFC
:101F400030B32046A16A884722E094F84010082068
:101F500088402840E0B106F00800C8B12068006859
:101F600020F00E002168086094F84010012088409D
:101F7000E16B48600120A06384F8210000BF0020CD
:101F800084F8200000BF206B10B12046216B8847E9
:101F900070BD00008000024008040240014600229B
:101FA00009B9012070471E4B086898420BD21D4B9F
:101FB0000868C01A1423B0FBF3F0800008641948C5
:101FC0000838C8630AE0164B0868C01A1423B0FB2F
:101FD000F3F08000086412480838C863022081F8D2
:101FE00021000868026843F6F0708243D1E90103DA
:101FF0001843CB6818430B6918434B6918438B6926
:102000001843CB69184302430868026000208863C4
:10201000012081F82100002081F8200000BFC1E7E5
:1020200008040240080002402DE9F04104460D4634
:1020300016461F464FF0000800BF94F82000012804
:1020400002D10220BDE8F081012084F8200000BF09
:1020500094F8210001282CD1022084F821000020CE
:10206000A0632068006820F00100216808603B46FA
:10207000324629462046FFF76DF9E06A30B1206804
:10208000006840F00E00216808600BE020680068DE
:1020900020F00400216808602068006840F00A0011
:1020A000216808602068006840F00100216808602D
:1020B00006E000BF002084F8200000BF4FF00208B7
:1020C0004046BFE70348006940F0800001490861CD
:1020D00000207047002002402DE9FE4F05468B4648
:1020E00017469846012600240020029000BF24488D
:1020F000007E012802D10220BDE8FE8F0120204988
:10210000087600BF4CF25030FFF7EEFB064686BB68
:10211000012D02D10120029006E0022D02D1022001
:10212000029001E00420029000241EE02201B94642
:10213000C24648465146FEF717F880B20190022089
:1021400000FB04B000900199FFF77CFB4CF250308B
:10215000FFF7CAFB06460B48006920F00100094959
:10216000086106B104E0601CC4B202988442DDDB61
:1021700000BF00BF00200249087600BF3046BBE721
:10218000B00300200020024000200849096901F046
:10219000800151B10649054A516006495160114616
:1021A000096901F0800101B101207047002002405F
:1021B00023016745AB89EFCD2DE9F847024600239F
:1021C0009C467BE14FF0010808FA03F4D1F8008047
:1021D00008EA0400A0427DD1DFF8F4A2D1F804801F
:1021E000A8EB0A09D0453AD014DCB8F1030F50D05F
:1021F00009DCB8F1000F31D0B8F1010F1CD0B8F1F3
:10220000020F49D120E0B8F1110F18D0B8F1120F28
:1022100042D11EE0B9F5881F25D006DCB9F5803F14
:1022200020D0B9F5801F37D11AE0B9F5001F18D0BA
:10223000B9F5041F30D117E0D1F80CC02DE0D1F86A
:102240000C8008F1040C28E0D1F80C8008F1080C8F
:1022500023E0D1F80C8008F10C0C1EE000BF00BF99
:1022600000BF00BF00BF00BFD1F80880B8F1000F69
:1022700002D14FF0040C0BE0D1F80880B8F1010F47
:1022800003D14FF0080C146102E04FF0080C5461C8
:1022900003E04FF0000C00E000BF00BFFF2801D8B2
:1022A000904601E002F104084646FF2802D84FEAB2
:1022B000830803E0A3F108084FEA88084746D6F8E8
:1022C00000804FF00F0909FA07F928EA09080CFA0B
:1022D00007F900E07AE048EA0908C6F80080D1F87A
:1022E000048008F08058B8F1805F6FD100BFDFF83C
:1022F000E481D8F8188048F00108DFF8D891C9F8CF
:102300001880C846D8F8188008F00108CDF8008079
:1023100000BF00BF4FEAB9384FEA930958F8295077
:102320004FEA83784FEA18794FF00F0808FA09F856
:1023300025EA0805DFF8A081424502D14FF00008E8
:1023400024E0DFF89881424502D14FF001081DE0FA
:10235000DFF88C81424502D14FF0020816E0DFF829
:102360008481424502D14FF003080FE0DFF8788105
:10237000424502D14FF0040808E0DFF87081424581
:1023800002D14FF0050801E04FF006084FEA8379CB
:102390004FEA197908FA09F848EA0505DFF850818B
:1023A0004FEA930948F82950D1F8048008F48018BE
:1023B000B8F5801F0BD1DFF83C81D8F8008048EADF
:1023C0000008DFF83091C9F800800AE075E0DFF816
:1023D0002481D8F8008028EA0008DFF81891C9F8AD
:1023E0000080D1F8048008F40018B8F5001F0ED161
:1023F000DFF8008108F10408D8F8008048EA0008F6
:10240000DFF8F09009F10409C9F800800DE0DFF869
:10241000E48008F10408D8F8008028EA0008DFF812
:10242000D49009F10409C9F80080D1F8048008F4B7
:102430000038B8F5003F0ED1DFF8B880A8F10408E5
:10244000D8F8008048EA0008DFF8A890A9F104094C
:10245000C9F800800DE0DFF89C80A8F10408D8F8E6
:10246000008028EA0008DFF88C90A9F10409C9F877
:102470000080D1F8048008F48038B8F5803F0ED190
:10248000DFF87080A8F10808D8F8008048EA000852
:10249000DFF86090A9F10809C9F800800DE0DFF8C5
:1024A0005480A8F10808D8F8008028EA0008DFF86E
:1024B0004490A9F10809C9F800805B1CD1F800809C
:1024C00028FA03F8B8F1000F7FF47CAEBDE8F88776
:1024D000000011100010024000080140000C0140F3
:1024E000001001400014014000180140001C014090
:1024F0000800014008040140024693680B400BB1FC
:10250000012000E0002070470AB1016101E00B04E6
:102510000361704701480068704700000800002010
:10252000704770472DE9F84F0446206847692068D6
:10253000D0F80480002594F83E90C7F3002070B1D5
:10254000C8F3002058B145F001056FF48070216890
:1025500048612068006840F4004021680860C7F3C3
:10256000402040B1C8F3002028B145F002056FF4C7
:10257000007021684861C7F3802070B3C8F3002061
:1025800058B3CA46B4F82AB094F83D60206B009066
:10259000BAF1200F0FD1BBF1000F0CD1212E06D0C4
:1025A000292E04D0282E06D10098212803D12046B8
:1025B00003F0A8FA11E06FF480602168486145F0EB
:1025C0000405B9F1100F02D0B9F1400F05D1206810
:1025D000006840F4007021680860C7F3C02040B173
:1025E000C8F3002028B145F008056FF400602168A9
:1025F00048612DB1206C28432064204602F046FD3E
:10260000BDE8F88F2DE9F04705464FF0000928682E
:102610004668D5F82CA095F83E7095F83D80102FAF
:1026200001D0402F75D12868D0F8189028684469E7
:1026300004F0010060B9BAF52A0F02D0BAF12A4FAE
:1026400001D1012000E00020012801D1BDE8F08780
:1026500004F0010048B1C6F3402030B1284602F032
:1026600081FC284603F004F9B7E0C4F3C00030B1A0
:10267000C6F3402018B1284602F0A5FFADE0C4F330
:10268000400030B1C6F3402018B1284602F0B0FF38
:10269000A3E0C9F3800040B32868406800F40060FC
:1026A000B0F5006FE0D0C4F3C01048B1C6F380208D
:1026B00030B1C4F3800018B9284602F018FF8CE04E
:1026C000C4F380000028CFD0C6F340200028CBD030
:1026D000B8F1210F03D1284602F0B9FE7DE0402F6A
:1026E0007BD1284603F013F977E02868406800F4AE
:1026F0000060B0F5006F70D0C4F3801050B1C6F325
:10270000802038B1C4F3800020B9284602F027FEAB
:1027100063E00BE0C4F3800000285ED0C6F34020E5
:1027200000285AD0284602F087FD56E0286C10B1E8
:102730002868446904E02868D0F81890286844693B
:10274000C4F3400060B1C6F3402048B1286C10B11A
:102750002868D0F818904946284603F09BF93CE0D9
:10276000C4F3001030B1C6F3402018B1284603F07E
:102770001DFA32E0B8F1210F02D0B8F1290F16D1BD
:10278000C4F3C01048B1C6F3802030B1C4F3800058
:1027900018B9284603F05BF91FE0C4F38000E0B1EC
:1027A000C6F34020C8B1284603F044F915E0C4F34D
:1027B000801048B1C6F3802030B1C4F3800018B94E
:1027C000284603F014F908E0C4F3800028B1C6F3EA
:1027D000402010B1284603F0FDF800BF36E77047EF
:1027E00070B504460CB9012070BD94F83D0028B9BD
:1027F000002084F83C00204600F0E0F8242084F813
:102800003D002068006820F0010021680860206811
:10281000006840F40040216808602068006820F4E7
:1028200000402168086000F0BBFA05465C4960681A
:10283000884206D85B48854201D2012007E000208B
:1028400005E05948854201D2012000E0002001281E
:1028500000D1C9E75548B5FBF0F62068406820F084
:102860003F003043216848604D496068884201D884
:10287000701C07E04FF4967070434FF47A71B0FB10
:10288000F1F0401C2168096A21F03F0108432168EA
:10289000086243496068884214D8681E616849002C
:1028A000B0FBF1F0401CC0F30B00042801D204205F
:1028B0003DE0681E61684900B0FBF1F0401CC0F3C8
:1028C0000B0034E0A06838B9681E616801EB410173
:1028D000B0FBF1F0401C0AE0681E616801EBC10228
:1028E00002EB0111B0FBF1F0401C40F48040C0F35A
:1028F0000B0008B901201AE0A06848B9681E616899
:1029000001EB4101B0FBF1F0401CC0F30B000CE007
:10291000681E616801EBC10202EB0111B0FBF1F02E
:10292000401CC0F30B0040F4804040F4004021689C
:10293000C9694CF6FF72914308432168C861D4E924
:10294000070108432168096821F0C0010843216894
:102950000860D4E9031008432168896848F2FF320F
:102960009143084321688860D4E905010843216840
:10297000C96821F0FF0108432168C8602068006829
:1029800040F001002168086000202064202084F8C5
:102990003D000020206384F83E0000BF24E70000D3
:1029A000A086010080841E0000093D0040420F0007
:1029B00070477047704770477047000010B586B089
:1029C0000446002002900390049005901D49206861
:1029D000884235D100BF1C48806940F008001A4980
:1029E00088610846806900F00800019000BF00BFC0
:1029F000C0200290122003900320059002A91348E2
:102A0000FFF7DAFB00BF1048C06940F400100E4920
:102A1000C8610846C06900F40010019000BF00BF03
:102A2000002211461F2000F09DF81F2000F08AF8B8
:102A300000221146202000F095F8202000F082F8B6
:102A400006B010BD0054004000100240000C0140D0
:102A500070477047034800680349097808440149F2
:102A600008607047080000201000002010B50848DA
:102A7000006840F0100006490860032000F0B0F83C
:102A80000F2000F007F800F02BF8002010BD000028
:102A90000020024070B504460E4800784FF47A7169
:102AA000B1FBF0F00C490968B1FBF0F5284600F0E5
:102AB00087FF08B1012070BD102C07D200222146EB
:102AC000501E00F04FF80548046001E00120F2E7D5
:102AD0000020F0E710000020140000200C0000206F
:102AE00008B500BF1548806940F0010013498861AE
:102AF0000846806900F00100009000BF00BF00BFE1
:102B00000846C06940F08050C8610846C06900F0BE
:102B10008050009000BF00BF00221146052000F049
:102B200021F8052000F00EF800BF0549486820F0A4
:102B3000E06040F00070486000BF08BD0010024037
:102B40000000014001460846002809DB00F01F0391
:102B500001229A4043099B0003F1E023C3F80021BE
:102B600000BF70472DE9F05F80460D4616460027EE
:102B700006F06CF8074639462A46334601F007004E
:102B8000C0F1070ABAF1040F02D94FF0040A01E0BC
:102B9000C0F1070AD14600F1040ABAF1070F02D2C8
:102BA0004FF0000A01E0A0F1030AD4464FF0010AF9
:102BB0000AFA09FAAAF1010A0AEA020A0AFA0CFA5E
:102BC0004FF0010B0BFA0CFBABF1010B0BEA030B03
:102BD0004AEA0B042146404606F040F8BDE8F09F63
:102BE00000BF00F00702064B19684FF6FF031940BB
:102BF000044B0B4343EA0221014B196000BF7047AD
:102C00000CED00E00000FA0570B504460D460CB965
:102C1000012070BD5A48006800F00700A8420ED29B
:102C20005748006820F007002843554908600846C7
:102C3000006800F00700A84201D00120E9E72078F1
:102C400000F0020002281DD1207800F004000428C2
:102C500005D14C48406840F4E0604A49486020781B
:102C600000F00800082805D14648406840F460504C
:102C7000444948604348406820F0F000A168084398
:102C800040494860207800F0010078B3606801286E
:102C900006D13C48006800F4003090B90120B8E744
:102CA0006068022806D13748006800F0007040B91B
:102CB0000120AEE73348006800F0020008B90120A7
:102CC000A7E73048406820F00300616808432D49B9
:102CD0004860FFF71FFC064609E0FFF71BFC801B5E
:102CE00041F28831884202D9032092E707E0254863
:102CF000406800F00C006168B0EB810FEDD1204816
:102D0000006800F00700A8420ED91D48006820F0B6
:102D1000070028431A4908600846006800F00700C9
:102D2000A84201D0012074E7207800F004000428B4
:102D300007D11448406820F4E060E1680843114975
:102D40004860207800F00800082808D10D48406845
:102D500020F46050216940EAC1000A49486000F04F
:102D60003FF808494968C1F30311074A515CC8405C
:102D70000649086006480068FFF78CFE002048E717
:102D80000020024000100240C897000814000020F4
:102D90000C0000200148006870470000140000206B
:102DA00000B5FFF7F7FF04494968C1F30221034A60
:102DB000515CC84000BD000000100240D8970008D8
:102DC00000B5FFF7E7FF04494968C1F3C221034A90
:102DD000515CC84000BD000000100240D8970008B8
:102DE00070B500210022002400230020134D6968E3
:102DF00001F00C05F5B1042D02D0082D19D101E028
:102E00000F4819E00F4DC1F38346AB5D01F48035E7
:102E100055B10A4D6D68C5F340450B4E725D084DC6
:102E20005D43B5FBF2F402E0084D03FB05F42046D8
:102E300002E000BF024800BF00BF70BD00100240AA
:102E400000127A00B6970008C697000800093D00F6
:102E5000F8B504460CB90120F8BD207800F0010057
:102E6000002878D0F848406800F00C0004280CD006
:102E7000F548406800F00C00082811D1F24840687D
:102E800000F48030B0F5803F0AD1EF48006800F4CC
:102E9000003000285FD0606800285CD10120DBE7AB
:102EA00000BF6068B0F5803F06D1E748006840F495
:102EB0008030E549086028E0606858B9E248006859
:102EC00020F48030E04908600846006820F4802043
:102ED00008601AE06068B0F5A02F0BD1DA480068EE
:102EE00040F48020D84908600846006840F48030EB
:102EF00008600AE0D448006820F48030D2490860B5
:102F00000846006820F48020086000BF606888B12F
:102F1000FFF700FB054606E0FFF7FCFA401B6428BC
:102F200001D9032098E7C848006800F40030002861
:102F3000F2D010E0FFF7EEFA054606E0FFF7EAFAF6
:102F4000401B642801D9032086E7BF48006800F4CD
:102F500000300028F2D1207800F00200022857D17A
:102F6000B948406800F00C0050B1B748406800F024
:102F70000C00082818D1B448406800F4803098B993
:102F8000B148006800F0020020B12069012801D09A
:102F9000012061E7AC48006820F0F800616940EA70
:102FA000C100A949086033E02069E8B10120A749C0
:102FB0000860FFF7AFFA054606E0FFF7ABFA401BE3
:102FC000022801D9032047E79F48006800F002006B
:102FD0000028F2D09C48006820F0F800616940EABF
:102FE000C1009949086013E0002098490860FFF784
:102FF00091FA054606E0FFF78DFA401B022801D939
:10300000032029E79048006800F002000028F2D170
:10301000207800F0080008282DD1A069B8B101205F
:103020008B490860FFF776FA054606E0FFF772FA6B
:10303000401B022801D903200EE78348406A00F0B4
:1030400002000028F2D0012004F068FD13E0002007
:103050007F490860FFF75EFA054606E0FFF75AFA77
:10306000401B022801D90320F6E67748406A00F0A9
:1030700002000028F2D1207800F00400042873D167
:1030800000277148C06900F0805070B900BF6E48D9
:10309000C06940F080506C49C8610846C06900F0C2
:1030A0008050009000BF00BF01276A48006800F40C
:1030B0008070B0B96748006840F480706549086066
:1030C000FFF728FA054606E0FFF724FA401B6428BC
:1030D00001D90320C0E65F48006800F48070002832
:1030E000F2D000BFE068012806D15748006A40F0DE
:1030F00001005549086227E0E06858B95248006A63
:1031000020F00100504908620846006A20F00400DF
:10311000086219E0E06805280BD14B48006A40F0CE
:103120000400494908620846006A40F0010008624C
:103130000AE04548006A20F0010043490862084659
:10314000006A20F00400086200BFE068A0B1FFF749
:10315000E1F9054609E0FFF7DDF9401B41F288314E
:10316000884202D9032077E622E03748006A00F05F
:1031700002000028EFD012E0FFF7CCF9054608E086
:10318000FFF7C8F9401B41F28831884201D903207A
:1031900062E62D48006A00F002000028F0D1012FFD
:1031A00005D12948C06920F080502749C86100BF77
:1031B000E069C8B32448406800F00C00082860D0DB
:1031C000E069022848D1002020490866FFF7A2F9EB
:1031D000054606E0FFF79EF9401B022801D90320AF
:1031E0003AE61948006800F000700028F2D1206A21
:1031F000B0F5803F07D11448406820F40030A16842
:10320000084311494860D4E9080108430E49496858
:1032100021F4741108430C49486001200B490866E9
:10322000FFF778F9054607E03DE0FFF773F9401B2B
:10323000022801D903200FE60348006800F000705F
:103240000028F2D02FE000000010024000004242AF
:103250008004424200700040002014490866FFF7D5
:1032600059F9054606E0FFF755F9401B022801D938
:103270000320F1E50E48006800F000700028F2D14C
:1032800011E0E069012800D1E6E50948466806F446
:103290008031206A814204D106F47011606A814253
:1032A00001D00120D8E50020D6E500000000424210
:1032B0000010024070470000F8B5044620684668D8
:1032C00020688568C5F3801048B905F0010030B169
:1032D000C6F3801018B12046216C8847F8BDC5F3AD
:1032E000400030B1C6F3C01018B12046616C884769
:1032F000F4E7C5F3401018B9C5F38010002871D069
:10330000C6F3401000286DD0C5F38010F0B194F8DA
:10331000510003280ED0606D40F00400606500BFCE
:10332000002000902068C0680090206880680090AD
:1033300000BF0BE000BF002000902068C068009034
:1033400020688068009000BF00BFC7E7C5F3401049
:1033500088B1606D40F00100606500BF0020009002
:103360002068806800902068006820F04000216894
:10337000086000BF00BF606D70B32068406820F037
:10338000E00021684860012084F8510006F0020046
:1033900010B906F0010000B32068406820F0030077
:1033A00021684860E06C50B10F48E16C4863E06C04
:1033B000FEF750FB18B1606D40F040006065A06CF6
:1033C00050B10948A16C4863A06CFEF743FB18B1EB
:1033D000606D40F04000606502E02046FFF76AFF44
:1033E0007CE7FFE700BF79E7A97B000810B504463A
:1033F0000CB9012010BD606A38B96068B0F5827FF1
:1034000000D105E00021E16102E00021216161615C
:103410000021A16294F8510028B9002084F85000DE
:10342000204600F043F8022084F85100206800682C
:1034300020F0400021680860A08800F48270218993
:1034400001F404410843A18901F400610843217C8F
:1034500001F002010843217D01F001010843218BA5
:1034600001F400710843217F01F038010843202155
:10347000095D01F080010843218D01F400510843EA
:10348000216808600421A06901EA104021684860B1
:103490002068C06920F400602168C8610020606570
:1034A000012084F851000020A4E7000010B586B088
:1034B0000446002002900390049005903C49206847
:1034C000884236D100BF3B48806940F4805039497A
:1034D00088610846806900F48050019000BF00BFF9
:1034E00000BF0846806940F0040088610846806992
:1034F00000F00400019000BF00BFA0200290022055
:1035000003900320059002A92B48FEF755FE4020AA
:10351000029000200390049002A92748FEF74CFE79
:10352000002211462320FFF71DFB2320FFF70AFB93
:103530003BE022492068884237D100BF1D48C0695E
:1035400040F480401B49C8610846C06900F48040CF
:10355000019000BF00BF00BF0846806940F008002E
:1035600088610846806900F00800019000BF00BF34
:103570004FF420400290022003900320059002A9FE
:103580000F48FEF719FE4FF4804002900020039090
:10359000049002A90A48FEF70FFE002211462420DB
:1035A000FFF7E0FA2420FFF7CDFA06B010BD0000C7
:1035B0000030014000100240000801400038004087
:1035C000000C01402DE9F84F0446884616461D467A
:1035D0004FF0000A00BF94F85000012802D10220E9
:1035E000BDE8F88F012084F8500000BFFEF792FF7D
:1035F0000746B14694F85100012802D04FF0020A64
:10360000B7E0B8F1000F00D016B94FF0010AB0E0F2
:10361000032084F8510000206065C4F83080A6863D
:10362000E686A063A087E08760642064A068B0F5A8
:10363000004F0BD12068006820F04000216808602E
:103640002068006840F480402168086020680068B5
:1036500000F04000402805D02068006840F040009D
:1036600021680860E068B0F5006F32D1606810B181
:10367000B9F1010F09D1206B00882168C860206B67
:10368000801C2063E08E401EE0861EE0206880687B
:1036900000F0020002280AD1206B00882168C8606F
:1036A000206B801C2063E08E401EE0860DE0FEF75C
:1036B00031FFC01BA84201D3681C00B92DB94FF0DF
:1036C000030A012084F8510053E0E08E0028DDD188
:1036D00031E0606810B1B9F1010F09D1206B0078B9
:1036E00021680873206B401C2063E08E401EE0863A
:1036F0001EE02068806800F0020002280AD1206BDA
:10370000007821680873206B401C2063E08E401E07
:10371000E0860DE0FEF7FEFEC01BA84201D3681C48
:1037200000B92DB94FF0030A012084F8510020E0C0
:10373000E08E0028DDD13A462946204604F03EFAC4
:1037400008B120206065A06850B900BF002000903B
:103750002068C068009020688068009000BF00BFAB
:10376000606D10B14FF0010A02E0012084F85100B1
:1037700000BF00BF002084F8500000BF50462FE774
:103780002DE9FF5F0446884691461D460E9E0120A6
:1037900002900020019000BF94F85000012803D14E
:1037A000022004B0BDE8F09F012084F8500000BF63
:1037B000FEF7B0FE074694F851B060680390AA4641
:1037C000BBF1010F0BD00398B0F5827F04D1A06844
:1037D00010B9BBF1040F02D002200190E9E0B8F16A
:1037E000000F03D0B9F1000F00D015B901200190EE
:1037F000DFE094F85100042802D0052084F851003D
:1038000000206065C4F83890E587A587C4F830804B
:10381000E586A586206460642068006800F04000AA
:10382000402805D02068006840F04000216808600A
:10383000E068B0F5006F4DD1606810B1BAF1010FCA
:1038400009D1206B00882168C860206B801C206330
:10385000E08E401EE08636E02068806800F00200BE
:10386000022810D1E08E70B1029801280BD1206B94
:1038700000882168C860206B801C2063E08E401E99
:10388000E086002002902068806800F0010068B1A6
:10389000E08F58B12068C068A16B0880A06B801CC5
:1038A000A063E08F401EE08701200290FEF732FE09
:1038B000C01BB04207D3701C28B103200190012027
:1038C00084F8510075E0E08E0028C5D1E08F002813
:1038D000C2D14DE0606810B1BAF1010F09D1206B7F
:1038E000007821680873206B401C2063E08E401E26
:1038F000E08637E02068806800F00200022810D1DE
:10390000E08E70B1029801280BD1206B00782168FD
:103910000873206B401C2063E08E401EE086002070
:1039200002902068806800F0010068B1E08F58B113
:103930002068C068A16B0870A06B401CA063E08F7A
:10394000401EE08701200290FEF7E4FDC01BB0425C
:1039500001D3701C00B92EB903200190012084F816
:10396000510026E0E08E0028C4D1E08F0028C1D1AC
:103970003A463146204604F021F920B10120019059
:103980002020606515E0A06850B900BF00200090BD
:103990002068C068009020688068009000BF00BF69
:1039A000606D10B10120019002E0012084F8510007
:1039B00000BF00BF002084F8500000BF0198F0E66F
:1039C00070B504462546681EB0F1807F01D3012002
:1039D0000FE0681E4FF0E02148610F214FF0FF30EB
:1039E00005F03CF900204FF0E021886107200861D4
:1039F000002070BD7047704730B502460B4600BFCF
:103A000092F83C00012801D1022030BD012082F84B
:103A10003C0000BF022082F83D0010684468106836
:103A2000816824F070041868044310684460144DE1
:103A30001068A84213D0134D1068A8420FD0106828
:103A4000B0F1804F0BD0104D1068A84207D00F4D39
:103A50001068A84203D00E4D1068A84205D121F08D
:103A600080015868014310688160012082F83D00A0
:103A700000BF002082F83C0000BF00BFC5E7000087
:103A8000002C0140003401400004004000080040C8
:103A9000000C004010B504460CB9012010BD94F88C
:103AA0003D0028B9002084F83C00204600F026F8AC
:103AB000022084F83D00211D206804F075FA0120E1
:103AC00084F8460000BF84F83E0001213F200155E4
:103AD000402001554120015500BF00BF012084F85E
:103AE000420043200155442001554520015500BFA7
:103AF000012084F83D000020D0E7000038B50446DE
:103B00002068B0F1804F16D100BF1848C06940F05E
:103B100001001649C8610846C06900F00100009024
:103B200000BF00BF002211461C20FFF71BF81C201D
:103B3000FFF708F819E00E492068884215D100BF48
:103B40000A48C06940F004000849C8610846C069D5
:103B500000F00400009000BF00BF002211461E20AC
:103B6000FFF700F81E20FEF7EDFF38BD0010024001
:103B700000080040014691F83D00012801D00120D5
:103B80007047022081F83D000868C06840F00100DD
:103B90000B68D860164B0868984213D0154B08681C
:103BA00098420FD00868B0F1804F0BD0124B0868D4
:103BB000984207D0114B0868984203D0104B086810
:103BC00098420CD10868806800F00702062A0CD0E1
:103BD0000868006840F001000B68186005E008689C
:103BE000006840F001000B6818600020C8E7000082
:103BF000002C014000340140000400400008004057
:103C0000000C00402DE9F04104460D46002700BF9E
:103C100094F83C00012802D10220BDE8F081012087
:103C200084F83C0000BF022084F83D0020688668CC
:103C300026F0770626F47F4620688660286850289C
:103C400033D00CDC202850D004DC00284BD01028C6
:103C500051D149E0302849D040284CD139E0602882
:103C60002DD0702807D0B0F5805F03D0B0F5005F8D
:103C700041D10DE041E0D5E902136A68206804F003
:103C8000F2F92068866846F077062068866034E09E
:103C9000D5E902136A68206804F0E5F920688068B5
:103CA00040F480402168886027E0EA6869682068FD
:103CB00004F0CAFA5021206804F0E0F91DE0EA6837
:103CC0006968206804F012FB6021206804F0D6F9CE
:103CD00013E0EA686968206804F0B6FA40212068B9
:103CE00004F0CCF909E000BF00BF00BF29682068DC
:103CF00004F0C4F901E0012700BF00BF012084F8EF
:103D00003D0000BF002084F83C0000BF384684E737
:103D100010B50446204600F0EDFF10BD2DE9F0413E
:103D200004460D461646002700BF94F83C000128C3
:103D300002D10220BDE8F081012084F83C0000BFE0
:103D400096B9EB68D5E90012206804F091FA206872
:103D5000806920F00C002168886120688069A9686A
:103D600008432168886141E0042E13D1EB68D5E94E
:103D70000012206804F0CEFA2068806920F44060C8
:103D80002168886120688069A96840EA012021686B
:103D900088612BE0082E12D1EB68D5E9001220686B
:103DA00004F0D5FA2068C06920F00C002168C861D1
:103DB0002068C069A96808432168C86116E00C2E14
:103DC00013D1EB68D5E90012206804F0DCFA206812
:103DD000C06920F440602168C8612068C069A96892
:103DE00040EA01202168C86100E0012700BF0020EF
:103DF00084F83C0000BF38469CE710B504460CB977
:103E0000012010BD94F83D0028B9002084F83C0042
:103E1000204600F025F8022084F83D00211D20688E
:103E200004F0C2F8012084F8460000BF84F83E0088
:103E300001213F200155402001554120015500BF7F
:103E400000BF012084F84200432001554420015561
:103E50004520015500BF012084F83D000020D0E737
:103E600010B586B00446002002900390049005909F
:103E70001849206888422BD100BF1748C06940F01C
:103E800008001549C8610846C06900F008000190A3
:103E900000BF00BF00BF0846806940F00400886191
:103EA0000846806900F00400019000BF00BF0220B6
:103EB000029000200390049002A90848FEF77CF9C4
:103EC000002211463220FEF74DFE3220FEF73AFE68
:103ED00006B010BD000C0040001002400008014078
:103EE0002DE9F04304460D46002615B994F83E002E
:103EF0000BE0042D02D13F20005D06E0082D02D129
:103F00004020005D01E04120005D804615B994F835
:103F100042000BE0042D02D14320005D06E0082D95
:103F200002D14420005D01E04520005D8146B8F1EA
:103F3000010F02D1B9F1010F02D00120BDE8F083D9
:103F40001DB9022084F83E000EE0042D03D10221A9
:103F50003F20015508E0082D03D1022140200155E2
:103F600002E00221412001551DB9022084F84200DF
:103F70000EE0042D03D102214320015508E0082D55
:103F800003D102214420015502E0022145200155C0
:103F900035B1042D0BD0082D10D00C2D1CD114E000
:103FA0002068C06840F002002168C86016E0206800
:103FB000C06840F004002168C8600FE02068C06855
:103FC00040F008002168C86008E02068C06840F040
:103FD00010002168C86001E0012600BF00BF46BB99
:103FE00001222946206804F02DF8164920688842ED
:103FF00013D01549206888420FD02068B0F1804F57
:104000000BD012492068884207D0114920688842A5
:1040100003D01049206888420CD12068806800F0E5
:104020000707062F0CD02068006840F001002168C7
:10403000086005E02068006840F001002168086021
:1040400030467BE7002C0140003401400004004072
:1040500000080040000C004010B5044620680069CC
:10406000C0F34000D8B12068C068C0F34000B0B1D0
:104070006FF00200216808610120207720688069C4
:1040800000F0030018B12046FFF742FE05E020468D
:1040900000F0D8F8204600F08CF900202077206846
:1040A0000069C0F38000D8B12068C068C0F3800008
:1040B000B0B16FF004002168086102202077206809
:1040C000806900F4407018B12046FFF721FE05E03A
:1040D000204600F0B7F8204600F06BF9002020776A
:1040E00020680069C0F3C000D8B12068C068C0F380
:1040F000C000B0B16FF0080021680861042020778B
:104100002068C06900F0030018B12046FFF700FEE8
:1041100005E0204600F096F8204600F04AF900201D
:10412000207720680069C0F30010D8B12068C0680B
:10413000C0F30010B0B16FF01000216808610820D2
:1041400020772068C06900F4407018B12046FFF75E
:10415000DFFD05E0204600F075F8204600F029F963
:10416000002020772068006900F0010058B1206825
:10417000C06800F0010030B16FF0010021680861F3
:10418000204600F091F920680069C0F3C01058B1D2
:104190002068C068C0F3C01030B16FF080002168A3
:1041A00008612046FFF726FC20680069C0F38010F4
:1041B00058B12068C068C0F3801030B16FF0400083
:1041C00021680861204600F08EF920680069C0F37C
:1041D000401058B12068C068C0F3401030B16FF093
:1041E0002000216808612046FFF705FC10BD000093
:1041F00010B586B00446002002900390049005900C
:104200002068B0F1804F16D100BF0C48806940F0A3
:1042100004000A4988610846806900F004000190A2
:1042200000BF00BF0120029002200390059002A968
:104230000348FDF7C1FF06B010BD000000100240AA
:104240000008014070472DE9F04104460D4616462E
:10425000002700BF94F83C00012802D10220BDE8ED
:10426000F081012084F83C0000BF36B1042E1BD041
:10427000082E31D00C2E5ED145E02946206803F08F
:1042800007FF2068806940F0080021688861206885
:10429000806920F0040021688861206880692969AC
:1042A00008432168886148E02946206803F028FF18
:1042B0002068806940F40060216888612068806916
:1042C00020F480602168886120688069296940EA5B
:1042D00001202168886130E02946206803F04EFF04
:1042E0002068C06940F008002168C8612068C06982
:1042F00020F004002168C8612068C069296908436A
:104300002168C86119E02946206803F073FF20681E
:10431000C06940F400602168C8612068C06920F469
:1043200080602168C8612068C069296940EA01206D
:104330002168C86101E0012700BF00BF00BF002065
:1043400084F83C0000BF384689E710B504460CB934
:10435000012010BD94F83D0028B9002084F83C00ED
:10436000204600F025F8022084F83D00211D206839
:1043700003F01AFE012084F8460000BF84F83E00D6
:1043800001213F200155402001554120015500BF2A
:1043900000BF012084F8420043200155442001550C
:1043A0004520015500BF012084F83D000020D0E7E2
:1043B0007047704770B504460D4615B994F83E0035
:1043C0000BE0042D02D13F20005D06E0082D02D154
:1043D0004020005D01E04120005D012801D0012066
:1043E00070BD1DB9022084F83E000EE0042D03D1FB
:1043F00002213F20015508E0082D03D10221402071
:10440000015502E002214120015501222946206880
:1044100003F018FE1F492068884203D01E49206817
:10442000884201D1012000E0002028B12068406CC2
:1044300040F400402168486416492068884213D03F
:104440001549206888420FD02068B0F1804F0BD00A
:1044500012492068884207D011492068884203D059
:104460001049206888420CD12068806800F0070657
:10447000062E0CD02068006840F00100216808601A
:1044800005E02068006840F0010021680860002015
:10449000A6E70000002C0140003401400004004069
:1044A00000080040000C004000B50346184600F02C
:1044B0003BFD00BD0246002031B1042907D0082988
:1044C00008D00C290CD108E01368586B09E0136878
:1044D000986B06E01368D86B03E01368186C00E073
:1044E00000BF00BF7047704738B5044610480068E9
:1044F0000068C0F30010C8B100BF002000900C4855
:104500000068006800900A4800684068009000BF9A
:1045100000BF084806498862C820C88501200649AE
:104520000870C8220349024800F010FB38BD0000A3
:1045300094020020100C00202C00002038B5044606
:10454000164800680068C0F3001028B314A004F0F7
:1045500059FB00BF002000901048006800680090E0
:104560000E4800684068009000BF00BF64200B49FF
:10457000C8850F48886201200E4908700C48FCF776
:104580008FFC0D4908604FF47A7364220849034890
:1045900000F001FBFCF7F0FC38BD0000DC0200205D
:1045A00055617274332069646C650D0A0000000067
:1045B000E40C002064000020680000207047704771
:1045C0002DE9F84F0446206805682068C668206811
:1045D00047694FF00009CA4605F00F09B9F1000F0D
:1045E0000AD105F0200038B106F0200020B12046A5
:1045F00003F0DEFFBDE8F88FB9F1000F7BD007F0C4
:10460000010018B906F49070002874D005F001007C
:1046100030B106F4807018B1606C40F00100606445
:1046200005F0040030B107F0010018B1606C40F0F3
:104630000200606405F0020030B107F0010018B11B
:10464000606C40F00400606405F0080048B106F0BA
:10465000200010B907F0010018B1606C40F00800AC
:104660006064606C002845D005F0200028B106F099
:10467000200010B1204603F09BFF20684069C0F382
:10468000801A606C00F0080010B9BAF1000F2CD04D
:10469000204603F034FF2068406900F0400000B37A
:1046A00000BF00BF2168143151E8001F21F0400015
:1046B0002168143141E80002002AF3D100BFE06B09
:1046C00050B17748E16B4863E06BFDF7C3F988B1FF
:1046D000E06B416B88470DE02046FFF770FF09E073
:1046E00009E02046FFF76BFF04E02046FFF767FF75
:1046F000002060647EE7206B012877D105F0100070
:10470000002873D006F010000028FAD000BF002067
:10471000009020680068009020684068009000BF0A
:1047200000BF2068406900F0400000285FD0E06BC7
:10473000006840681FFA80F8B8F1000F55D0A08DCE
:10474000404552DDA4F82E80E06B8069202843D0DC
:1047500000BF00BF21680C3151E8001F21F48070B8
:1047600021680C3141E80002002AF3D100BF00BFEC
:1047700000BF2168143151E8001F21F001002168B9
:10478000143141E80002002AF3D100BF00BF00BF8E
:104790002168143151E8001F21F0400021681431D4
:1047A00041E80002002AF3D100BF202084F8420033
:1047B0000020206300BF00BF21680C3151E8001FBA
:1047C00021F0100021680C3141E80002002AF3D1E9
:1047D00000BFE06BFDF712F902206063A08DE28D4F
:1047E000801A81B22046FFF7E9FE03E742E0A08D80
:1047F000E18D401A1FFA80F8E08DD0B3B8F1000FB8
:1048000037D000BF00BF21680C3151E8001F21F4F0
:10481000907021680C3141E80002002AF3D100BFFA
:1048200000BF00BF2168143151E8001F21F00100D2
:104830002168143141E80002002AF3D100BF202092
:1048400084F842000020206300BF00BF21680C31C3
:1048500051E8001F21F0100021680C3141E80002EE
:10486000002AF3D100BF0220606341462046FFF7D3
:10487000A5FEBFE605F0800030B106F0800018B15B
:10488000204604F015F8B5E605F0400030B106F01A
:10489000400018B1204603F068FEABE600BFA9E671
:1048A000C383000810B504460CB9012010BDA069EF
:1048B00000B100E000BF94F8410028B9002084F85E
:1048C0004000204600F02AF8242084F841002068A7
:1048D000C06820F400502168C860204603F0E6FE5E
:1048E0002068006920F490402168086120684069D0
:1048F00020F02A00216848612068C06840F4005018
:104900002168C86000206064202084F8410084F899
:1049100042000020606300BFC8E7000010B586B009
:10492000044600200290039004900590734920688B
:10493000884237D100BF7248806940F48040704996
:1049400088610846806900F48040019000BF00BF84
:1049500000BF0846806940F004008861084680690D
:1049600000F00400019000BF00BF48150290022033
:1049700003900320059002A96248FDF71DFC4FF447
:104980008060029000200390049002A95D48FDF72A
:1049900013FC002211462520FEF7E4F82520FEF73F
:1049A000D1F8A8E058492068884236D100BF544861
:1049B000C06940F400305249C8610846C06900F43B
:1049C0000030019000BF00BF00BF0846806940F082
:1049D000040088610846806900F00400019000BF6F
:1049E00000BF04200290022003900320059002A93A
:1049F0004448FDF7E1FB082002900020039004905A
:104A000002A94048FDF7D8FB002211462620FEF7F8
:104A1000A9F82620FEF796F86DE03C492068884208
:104A200069D100BF3648C06940F480203449C8616C
:104A30000846C06900F48020019000BF00BF00BF9D
:104A40000846806940F0080088610846806900F0E7
:104A50000800019000BF00BF0815029002200390DB
:104A60000320059002A92A48FDF7A6FB4FF4006039
:104A7000029000200390049002A92548FDF79CFBBA
:104A800024482549086000204860002122488160B0
:104A90008021C1600021016141618161C161FDF737
:104AA0007DFA08B1FCF7CAFE00BF1B48E063446210
:104AB00000BF1848143819490860102048600021C8
:104AC000164881608021C1600021016141618161DE
:104AD000C161FDF763FA08B1FCF7B0FE00BF0F48F3
:104AE000A063446200BF002211462720FEF73AF877
:104AF0002720FEF727F806B010BD0000003801405F
:104B000000100240000801400044004000480040FE
:104B1000000C014030000240240300206803002004
:104B200070B504460D46164694F8420020280BD175
:104B300005B10EB9012070BD002020633246294620
:104B4000204603F031FEF6E70220F4E770B5044694
:104B50000D46164694F8420020280BD105B10EB937
:104B6000012070BD0020206332462946204603F014
:104B70007FFEF6E70220F4E710B5044603488442BE
:104B800003D164220249FFF7E1FF10BDDC020020DF
:104B9000E40C002070472DE9F84F04460E461746F6
:104BA00099464FF0000A94F8410020284AD106B1F6
:104BB00017B90120BDE8F88F00206064212084F837
:104BC0004100FDF7A7FC8246A784E784A068B0F502
:104BD000805F04D1206910B90025B04602E0354657
:104BE0004FF000081BE05346002280212046CDF8FC
:104BF000009003F08DFE08B10320DBE745B9B8F85B
:104C00000000C0F308002168486008F1020803E0D2
:104C10002878216848606D1CE08C401EE084E08CA0
:104C20000028E0D15346002240212046CDF80090D4
:104C300003F06EFE08B10320BCE7202084F8410099
:104C40000020B7E70220B5E7704700BFFEE700008D
:104C500070B504460D461D4960684860E06888608C
:104C60002068886108460562006A18B9012081F849
:104C7000240022E01548006A042804D102201349C8
:104C800081F8240019E01148006A082804D10420A2
:104C90000E4981F8240010E00C48006A0C2804D169
:104CA00008200A4981F8240007E00848006A0C2817
:104CB00003D10820054981F824002046FEF75AFF59
:104CC00029462046FFF70CF970BD0000480D002072
:104CD00010B5012204210648FDF716FC0A20FCF756
:104CE00050FB002204210248FDF70EFC10BD00001D
:104CF000000C01402DE9FF4782468749DAF80000A1
:104D00008969884274D19AF81C00834991F824106B
:104D10008842F7D18048007800286AD17E48016A2D
:104D20005046FFF7C7FB7C49C86000BF0846006AD1
:104D300040B9DAF80000006A20F00A00DAF8001042
:104D4000086221E07448006A042808D1DAF80000FB
:104D5000006A20F0A000DAF80010086214E06E4843
:104D6000006A082808D1DAF80000006A20F4007010
:104D7000DAF80010086207E0DAF80000006A20F4B0
:104D80000050DAF8001008626348006A40B9DAF8A7
:104D90000000006A40F00200DAF80010086221E02A
:104DA0005D48006A042808D1DAF80000006A40F083
:104DB0002000DAF80010086214E05748006A08285A
:104DC00008D1DAF80000006A40F40070DAF8001048
:104DD000086207E0DAF80000006A40F40050DAF8F0
:104DE0000010086200BF00204B4948800120087075
:104DF00090E0494800780128FAD14748016A5046B6
:104E0000FFF758FB44490861084600694988424A4F
:104E1000926801FB02004049086108460069C968C0
:104E2000401A3D4948614869FBF775FB00223B4B3E
:104E3000CDE90001FBF700FB06460022384BFBF7EB
:104E400089FA044600224FF08043FBF7F5FA8046CA
:104E50000022344BFBF77EFACDE90201FBF768FB39
:104E60002D49C8610020087000BF0846006A40B99B
:104E7000DAF80000006A20F00A00DAF80010086290
:104E800021E02548006A042808D1DAF80000006A09
:104E900020F0A000DAF80010086214E01E48006A52
:104EA000082808D1DAF80000006A20F40070DAF867
:104EB0000010086207E0DAF80000006A20F40050F1
:104EC000DAF8001008621448006A30B9DAF8000015
:104ED000006ADAF8001008621BE00F48006A042834
:104EE00006D1DAF80000006ADAF80010086210E073
:104EF0000948006A082806D1DAF80000006ADAF8E2
:104F00000010086205E0DAF80000006ADAF8001024
:104F1000086200BFBDE8FF87480D002080842E4155
:104F20000040754000005940054A0168926991426D
:104F300004D103494988491C014A51807047000047
:104F4000480D002010B50248FDF7ECFA10BD000036
:104F50007000002010B50248FDF754FB10BD0000A2
:104F600070000020C16AB1F52A0F02D10121C1628F
:104F700005E0C16AB1F12A4F01D10821C162704731
:104F8000F8B50546002000906C6A94F83D603948F9
:104F900000681921B0FBF1F04FF47A71B0FBF1F029
:104FA000C0EBC00000EB8000009000BF009820B96B
:104FB000206C40F02000206409E00098401E009022
:104FC0002068006800F40070B0F5007FEED000BFEC
:104FD000606B10B10020616B8862A06B10B1002083
:104FE000A16B88622068006820F4806021680860F6
:104FF00000206085606B10B10020616B4863A06B7E
:1050000010B10020A16B48632068006820F0010007
:105010002168086094F83D0060280AD1202084F8B7
:105020003D00002084F83E0020642046FDF778FA19
:105030001EE006F02800282811D12068006840F002
:105040000100216808602068006840F480602168E1
:10505000086000202063282084F83D0005E020201F
:1050600084F83D00002084F83E002046FDF7B7FBA1
:10507000F8BD00001400002001684969C1F3C011A7
:1050800011B1002102681161704700002DE9F04163
:10509000044694F83D6094F83E70102F01D0402FE4
:1050A00007D1222E05D12068006820F40060216815
:1050B000086006F02800282805D100202063282059
:1050C00084F83D0010E02068406800F40060B0F50E
:1050D000006F07D0602E05D0202084F83D0000200E
:1050E00084F83E00002020632068406800F40060DF
:1050F000B0F5006F40D12068406820F4006021685E
:105100004860606B90F82100012814D04848616B1A
:105110004863606BFCF79EFC00285BD02068006849
:1051200020F0010021680860202084F83D00606BB9
:10513000416B88474EE03E48A16B4863A06BFCF78B
:1051400089FC002846D020684069C0F3801030B147
:1051500020680069616A0870606A401C60622068AB
:10516000006820F0010021680860202084F83D00DC
:10517000A06B416B88472DE094F83D0060281AD160
:10518000202084F83D000020206420684069C0F39E
:10519000801030B120680069616A0870606A401C44
:1051A00060622068006820F00100216808602046E5
:1051B000FDF7B6F90EE020684069C0F3801030B109
:1051C00020680069616A0870606A401C606220465D
:1051D000FDF705FB256C05F0010058B905F002004C
:1051E000022807D005F00400042803D005F00800C9
:1051F000082805D12068406820F4E06021684860F4
:1052000094F83D60206C00F0040004280ED1282E94
:105210000CD10848E06200202063202084F83D0083
:10522000002084F83E002046FDF7C2FBBDE8F08177
:10523000814F00080000FFFF70B50446E56A608DED
:10524000042810D12068406820F4806021684860FC
:1052500020680069616A0870606A401C6062608D45
:10526000401E60857AE0608D03281AD1206840686E
:1052700020F4806021684860042D07D0022D05D0FD
:105280002068006820F48060216808602068006958
:10529000616A0870606A401C6062608D401E6085B3
:1052A0005CE0608D02284FD1012D01D0102D06D178
:1052B0002068006820F480602168086012E0042DF6
:1052C00001D0022D06D12068006840F4806021687A
:1052D000086007E0102D05D02068006840F40070D9
:1052E0002168086020680069616A0870606A401C73
:1052F0006062608D401E608520680069616A087088
:10530000606A401C6062608D401E60852068406855
:1053100020F4407021684860202084F83D0094F813
:105320003E00402807D1002084F83E00206320463C
:10533000FDF741FB12E0002084F83E0012202063BC
:105340002046FDF736FB09E020680069616A0870B5
:10535000606A401C6062608D401E608570BD70B5E3
:10536000044694F83D00222870D1658D032D13D991
:1053700020680069616A0870606A401C6062608D24
:10538000401E6085608D03285FD12068406820F44E
:1053900080602168486058E0E06A02284FD0012D03
:1053A00001D0002D4BD1204600F0C6FC68BB206820
:1053B000006820F48060216808602068406820F45C
:1053C000E0602168486020680069616A0870606A6E
:1053D000401C6062608D401E6085202084F83D0086
:1053E00094F83E00402807D1002084F83E00206356
:1053F0002046FDF7E0FA28E0002084F83E00122065
:1054000020632046FDF7D5FA1FE02068406820F4AD
:10541000E0602168486020680069616A0870606A1D
:10542000401C6062608D401E6085202084F83D0035
:10543000002084F83E002046FDF7D1F905E0206801
:10544000406820F480602168486000BF70BD70B57E
:105450000446E56A94F83D00212847D1608D50B19B
:10546000606A007821680861606A401C6062608D33
:10547000401E60853AE0082D16D0202D14D015F579
:10548000803F11D02068406820F4E06021684860C7
:1054900011202063002084F83E00202084F83D0085
:1054A0002046FDF787FA21E02068406820F4E0609C
:1054B000216848602068006840F400702168086036
:1054C00000202063202084F83D0094F83E0040280E
:1054D00006D1002084F83E002046FDF76DFA05E075
:1054E000002084F83E002046FDF764FA70BD2DE9E7
:1054F000F041044694F83D5094F83E70E66A208DE1
:10550000B0BB212D3CD1082E16D0202E14D016F57C
:10551000803F11D02068406820F4E0602168486036
:1055200011202063002084F83E00202084F83D00F4
:105530002046FDF73FFA44E02068406820F4E06030
:10554000216848602068006840F4007021680860A5
:1055500000202063202084F83D0094F83E0040287D
:1055600007D1002084F83E002046FDF725FA28E008
:1055700006E0002084F83E002046FDF71BFA20E0FC
:10558000212D03D0402F1CD1222D1AD1608D30B98E
:105590002068406820F480602168486011E094F839
:1055A0003E00402803D1204600F0B1F909E0606ACE
:1055B000007821680861606A401C6062608D401E4E
:1055C0006085BDE8F081416CC9B202681161416B30
:1055D00011B1416B896A21B9816B41B1816B896AD3
:1055E00029B10168496841F400610268516070475F
:1055F00038B590F83E20C16A036B90F83D40222CEC
:1056000073D1046D64B9402A0AD100BF002400940C
:105610000468646900940468A469009400BF26E1EA
:10562000046DC4B90469B4F5404F14D100BF00241F
:1056300000940468646900940468A469009400BF3D
:1056400000BF0468246844F4807405682C60046D0D
:10565000641C04650BE1448D8CB900BF00240094E8
:105660000468646900940468A469009400BF00BFE2
:105670000468246844F4007405682C60E9E0448DF3
:10568000012C72D111F5803F30D10468246824F4D4
:10569000806405682C600468646804F40064B4F5F0
:1056A000006F10D10468246824F4806405682C60BD
:1056B00000BF002400940468646900940468A4692D
:1056C000009400BFC5E000BF002400940468646932
:1056D00000940468A469009400BF00BF04682468B3
:1056E00044F4007405682C60B3E0B5E0082923D0C9
:1056F000202921D0122B01D101291DD104290AD042
:10570000022908D0102906D00468246824F4806493
:1057100005682C6005E00468246844F4806405682A
:105720002C6000BF0024009404686469009404683D
:10573000A469009400BF8CE00468246824F48064A9
:1057400005682C6000BF002400940468646900941C
:105750000468A469009400BF00BF0468246844F48E
:10576000007405682C6074E0FFE7448D022C47D17B
:1057700004291BD0022919D0102917D004682468E5
:1057800044F4006405682C6000BF002400940468A1
:10579000646900940468A469009400BF00BF0468B1
:1057A000246824F4806405682C6010E00468246890
:1057B00044F4806405682C6000BF002400940468F1
:1057C000646900940468A469009400BF00BF046881
:1057D000646804F40064B4F5006F3AD111F5803FB9
:1057E00007D0012905D0082903D0102901D020298C
:1057F0002FD10468646844F4805405686C6028E024
:105800000468246844F4806405682C600468646853
:1058100004F40064B4F5006F10D111F5803F07D097
:10582000012905D0082903D0102901D0202905D14C
:105830000468646844F4805405686C6000BF002408
:1058400000940468646900940468A469009400BF2B
:1058500000BF002404650AE000BF0024009404682F
:10586000646900940468A469009400BF00BF38BD57
:1058700090F83E1040290ED1016D29B9416C01F01C
:10588000FE010268116141E0416CC9B241F00101C1
:10589000026811613AE00169B1F5804F20D190F8BA
:1058A0003D10212905D1416C01F0FE010268116112
:1058B00005E0416CC9B241F0010102681161416B20
:1058C00011B1416B896A21B9816BF9B1816B896A28
:1058D000E1B10168496841F400610268516015E076
:1058E000016D41B9416C01F44071F02242EAE111CD
:1058F000026811610AE0016D012907D1416C01F4D0
:105900004071F12242EAE11102681161704770B5FD
:10591000044694F83D50206D98B9E06C012807D1F9
:10592000A06CC0B221680861206D801C206550E029
:10593000A06CC0F3072021680861206D401C206521
:1059400047E0206D012807D1A06CC0B22168086132
:10595000206D401C20653CE0206D022836D1222DB0
:1059600009D12068006840F4807021680860206DCB
:10597000401C20652DE0608D60B1212D0AD1606A48
:10598000007821680861606A401C6062608D401E7A
:1059900060851EE0608DE0B9212D1AD12068406835
:1059A00020F4E060216848602068006840F40070DE
:1059B0002168086000202063202084F83D0000203A
:1059C00084F83E002046FCF7F7FF02E02046FFF790
:1059D00053FB70BD418D49B101680969426A11707C
:1059E000416A491C4162418D491E4185704770B52D
:1059F000044694F83D50608DD8B120680069616A12
:105A00000870606A401C6062608D401E6085608D19
:105A100078B92A2D0DD12068406820F48060216873
:105A2000486022202063282084F83D002046FDF7AE
:105A30000FF870BD418D49B1416A09780268116162
:105A4000416A491C4162418D491E4185704770B5CC
:105A5000044694F83D50608DD8B1606A00782168A2
:105A60000861606A401C6062608D401E6085608DC8
:105A700078B9292D0DD12068406820F48060216814
:105A8000486021202063282084F83D002046FCF750
:105A9000E0FF70BDF8B504460D46002794F83D00C0
:105AA00000F0280028281CD12068406820F480607D
:105AB00021684860C5F3800000B90127C5F3C01014
:105AC00010B9A08986B201E0208B86B200BF002009
:105AD00084F83C0000BF324639462046FCF721FDE1
